:020000040800F2
:1000000000560020DD020008398500083579000817
:1000100035850008C90D000869C10008000000000E
:100020000000000000000000000000000194000833
:100030004513000800000000518A0008CD98000810
:10004000F7020008F7020008F7020008F7020008AC
:10005000F7020008F7020008F7020008F70200089C
:10006000F7020008F7020008F7020008691100080B
:1000700075110008F7020008F7020008F7020008EF
:10008000F702000800000000410B0008F70200081A
:10009000B5C00008711400087D140008F7020008BC
:1000A000F7020008F7020008F7020008F70200084C
:1000B000F7020008F7020008F7020008F70200083C
:1000C000F7020008F7020008F7020008F70200082C
:1000D000F7020008F7020008F702000825A8000848
:1000E000F7020008F7020008F7020008F70200080C
:1000F000F7020008F7020008F702000800000000FD
:1001000000000000F702000800000000F7020008ED
:10011000F7020008000000006D990008F7020008CF
:10012000F7020008F7020008F7020008F7020008CB
:10013000F70200080000000000000000F7020008BD
:10014000F7020008F70200080000000000000000AD
:10015000000000000000000000000000000000009F
:10016000000000000000000000000000F70200088E
:10017000F70200080000000000000000000000007E
:1001800000000000F702000800000000000000006E
:10019000000000000000000000000000000000005F
:1001A0000000000000000000F7020008F70200084D
:1001B000F7020008F7020008F7020008000000003C
:1001C00000000000F702000800000000000000002E
:1001D000F7020008F702000800F002F800F06EF8DD
:1001E0000AA090E8000C82448344AAF10107DA4592
:1001F00001D100F063F8AFF2090EBAE80F0013F076
:10020000010F18BFFB1A43F001031847283D0100F6
:10021000583D01000A444FF0000C10F8013B13F068
:10022000070408BF10F8014B1D1108BF10F8015B4F
:10023000641E05D010F8016B641E01F8016BF9D142
:1002400013F0080F1EBF10F8014BAD1C0C1B09D199
:100250006D1E58BF01F801CBFAD505E014F8016B0B
:1002600001F8016B6D1EF9D59142D6D3704700009D
:10027000103A24BF78C878C1FAD8520724BF30C8D2
:1002800030C144BF04680C607047000000230024A4
:1002900000250026103A28BF78C1FBD8520728BF96
:1002A00030C148BF0B6070471FB513F060F99DE87F
:1002B000030000F0CFFA1FBD10B510BD00F040FBE9
:1002C0001146FFF7F1FF0EF0C7F800F078FB03B41A
:1002D000FFF7F2FF03BC00F00DFC00000948804767
:1002E00009480047FEE7FEE7FEE7FEE7FEE7FEE718
:1002F000FEE7FEE7FEE7FEE704480549054A064B30
:100300007047000059990008D901000800500020EA
:100310000056002000520020005200200048704784
:10032000E001002070B5A0FB0140B4F1805170F1F4
:10033000000024BF002070BD204600F003FA050035
:100340001CBF214600F042F9284670BD53EA020C5A
:1003500000F069802DE9F04B4FF00006002B1FBF25
:10036000B3FA83F503FA05F424FA05F65E4012BFEA
:100370001643B2FA82F502FA05F4C5F120051EBF54
:1003800022FA05FC44EA0C04203556EA044C4FEAF4
:10039000144418BF641C4FF000084FF0000990424D
:1003A00071EB030C39D3002919BFB1FA81F701FAB7
:1003B00007F6B0FA80F700FA07F6C7F120071EBF6C
:1003C00020FA07FC46EA0C062037B6FBF4FCA7EB44
:1003D0000507103F07F01F0BCBF120062CFA06F69D
:1003E0000CFA0BFB44BFB3460026202FA4BF5E4689
:1003F0004FF0000B5BEA060C08BF4FF0010B19EB46
:100400000B0948EB0608ABFB027C06FB02CC0BFB9E
:1004100003CCC01B71EB0C01C1E70B460246414601
:100420004846BDE8F08B13B54FF000004FF00001D7
:10043000AFF30080BDE81C407047401ECAB210F800
:10044000011F8A4202D00029F9D10020704710B55F
:10045000431C02E010F8011B71B18107FAD14FF083
:10046000013202C88C1A8C4314EAC211F9D0C01AA6
:100470000A0603D0C01E10BDC01A10BD0A0401D068
:10048000801E10BD0902FCD0401E10BD40EA0103D1
:1004900070B59B072ED14FF00136042A2AD308C825
:1004A00010C99D1B9D43121F15EAC61517D0D8B25F
:1004B000E1B2401A50EA056110D198B2A1B2401AD7
:1004C00050EA05410AD123F07F4024F07F41401AD1
:1004D00050EA052102D1180EA0EB146070BDA342B2
:1004E000DBD018BA21BA884201D9012070BD4FF083
:1004F000FF3070BD0AB9002070BD10F8013B11F843
:10050000014B63B1A3420AD1521E08D010F8013B3F
:1005100011F8014B1BB1A34201D1521EEDD1181BA2
:1005200070BD032A40F2308010F0030C00F01580FB
:1005300011F8013BBCF1020F624498BF11F801CBE6
:1005400000F8013B38BF11F8013BA2F1040298BF4B
:1005500000F801CB38BF00F8013B11F0030300F0B5
:100560002B81083AC0F0088051F8043B083A51F852
:1005700004CBA0E80810F5E7121D5CBF51F8043B5E
:1005800040F8043BAFF30080D20724BF11F8013BD1
:1005900011F801CB48BF11F8012B24BF00F8013B33
:1005A00000F801CB48BF00F8012B704702F0FF03B1
:1005B00043EA032242EA024200F00AB802F0FF03D3
:1005C00043EA032242EA024200F024B84FF000025C
:1005D0000429C0F0128010F0030C00F01B80CCF155
:1005E000040CBCF1020F18BF00F8012BA8BF20F8C3
:1005F000022BA1EB0C0100F00DB85FEAC17C24BF17
:1006000000F8012B00F8012B48BF00F8012B7047C0
:100610004FF0000200B5134694469646203922BF9B
:10062000A0E80C50A0E80C50B1F12001BFF4F7AFE6
:10063000090728BFA0E80C5048BF0CC05DF804EBC8
:10064000890028BF40F8042B08BF704748BF20F836
:10065000022B11F0804F18BF00F8012B704710B526
:10066000044610F0030F08BF11F0030F40F015808F
:100670004FF0013E121FC0F20E8051F8043BA3EB75
:100680000E0C2CEA030C1CEACE1C08BF40F8043BFD
:10069000F0D0A1F1040102F10402521E08DB11F8AE
:1006A000013B00F8013B002BF7D11146FFF78EFF0D
:1006B000204610BD0000000030B44FF0013C50F85F
:1006C000042B51F8043BCCFA52F4D51A20D1FCB9D2
:1006D00050F8042B51F8043BCCFA52F4D51A17D138
:1006E000B4B950F8042B51F8043BCCFA52F4D51AA3
:1006F0000ED16CB950F8042B51F8043BCCFA52F4EB
:10070000D51A05D1002CDAD030BC4FF0000070476C
:1007100029BAB1FA81F111F01801D1F12000844019
:10072000F2D1CA40CB4012F0FF0213F0FF0330BCFD
:10073000D01A7047704770477047000000487047F4
:10074000E001002070B5064600F068F8056806F183
:100750000B0020F00704B4429CBF002070BD2B4664
:100760006A68BAB11068A04210D304F10801884247
:100770003CBF5068586007D3516810194160116838
:10078000091B016058601460101D70BD134652684B
:10079000002AE7D12146284600F048F80028DED19B
:1007A00070BD10B5FFF7BAFD006810BD10B5044666
:1007B000FFF7B4FD046010BD10B5203AC0F00B8007
:1007C000B1E81850A0E81850B1E81850A0E8185047
:1007D000203ABFF4F5AF5FEA027C24BFB1E81850BD
:1007E000A0E8185044BF18C918C0BDE810405FEA1F
:1007F000827C24BF51F8043B40F8043B08BF70479B
:10080000D20728BF31F8023B48BF11F8012B28BF9F
:1008100020F8023B48BF00F8012B704700487047A2
:10082000E8010020704770477047704738B50446AC
:100830000A4600206946AFF30080002808BF38BD93
:1008400002460099204600F0A0F8012038BD0120A2
:1008500000F0C5B8F8B5AFF30080054600200C469F
:10086000102000BF0646A819A0420DD9324669469D
:100870000020AFF30080070008BF00F0B0F8009838
:10088000A04218BF0546C419FFF7C8FF0560074618
:10089000F01D20F007004619284600F00AF8B4427F
:1008A00008BFF8BDA21B31463868BDE8F84000F02B
:1008B0006CB800210160C0E901107047102070473A
:1008C00070B50446051FFFF7A9FF0068002C14BF90
:1008D000446870BD002C18BFAC423CBF2046646821
:1008E000F8D301680A18AA4218BF456003D12A68E4
:1008F00005461144016028684119A1421CBF6C6083
:1009000070BD6168696021680844286070BD00009E
:100910001FB584B000200A9C06AB04AA02A900946B
:10092000AFF3008018B1DDE9020108B010BD034843
:10093000204000F04DF800200146F6E70000207C42
:100940007546FFF7FBFEAE4605006946534620F0AC
:100950000700854618B020B5FFF7CEFCBDE8204063
:100960004FF000064FF000074FF000084FF0000B6B
:10097000AC46ACE8C009ACE8C009ACE8C009ACE8DA
:10098000C00921F007018D467047034640688C4638
:10099000002818BF88423CBF03464068F8D3186857
:1009A0001844884207D00CF1030020F00700001D16
:1009B000411A521A0146081D0A60FFF781BF10B59F
:1009C0000446AFF300802046BDE81040FFF77FBC2F
:1009D00010B500F011F8BDE8104000F008B810B5EF
:1009E00000F060F8BDE8104000F001B87047002842
:1009F00001D000F07FB8704710B5022803D0410144
:100A000003D50DA112E0002010BD010101D50FA1F9
:100A10000CE0C10001D511A108E0810001D512A1AF
:100A200004E0400001D513A100E0002115A000F072
:100A300067F8012010BD0000496E76616C69642082
:100A40004F7065726174696F6E0000004469766969
:100A50006465204279205A65726F00004F76657296
:100A6000666C6F7700000000556E646572666C6F8F
:100A700077000000496E6578616374205265737574
:100A80006C7400005349474650453A2041726974DE
:100A9000686D6574696320657863657074696F6EED
:100AA0003A20000010B5012805D0002103A000F075
:100AB00027F8012010BD09A1F8E70000534947526B
:100AC000544D454D3A204F7574206F66206865611E
:100AD00070206D656D6F7279000000003A204865E6
:100AE0006170206D656D6F727920636F72727570C1
:100AF0007465640001491820ABBEFEE726000200C1
:100B000070B505460C460A2000E06D1C00F011F897
:100B100035B128780028F8D102E0641C00F009F80B
:100B200014B120780028F8D1BDE870400A20AFF356
:100B3000008008B569468DF800000320ABBE08BDF3
:100B400080B540F6CC30C2F2000002F0DBF940F68E
:100B50003840C2F20000BDE8804002F0D3B9000086
:100B600070B50D460446206806F0A0FF06462068D2
:100B700006F05CFF30435ED02068C16811F0007F52
:100B800019D0617F012916D1217F012913D1016874
:100B900011F0400F0BD14FF0FF310022CAF240326A
:100BA000013191423DD2036813F0400FF8D040214B
:100BB0000160012503E0022D01D102250FE006F0BE
:100BC00075FF18B1206806F05DFF18B1012D06D140
:100BD000042616E0206806F09FFF012DF8D020685B
:100BE00006F024FF30B1206806F04CFF10B92068F1
:100BF00006F036FF0426022D08BF0826032D08BF85
:100C00000C2603F0A1FC054620688068304212D013
:100C100003F09AFC401B0628F6D320688068304217
:100C2000F2D0E06D40F01000E065206E40F0010071
:100C30002066012070BD002070BD0000B0B50446E4
:100C4000206806F01FFF0546206806F01FFF0146DA
:100C500000203DBB002908BFB0BD2068816801F0BD
:100C60000D0101291FD106F083FE206803210160D8
:100C700003F06AFC05462068806810F0010F04BF8D
:100C80000020B0BD03F060FC401B032804D32068A3
:100C9000806810F0010F06D12068806810F0010F05
:100CA000F0D10020B0BDE06D40F01000E065206E96
:100CB00040F0010020660120B0BD0000B0B582B058
:100CC000044600250195206806F0E0FE00285BD16F
:100CD000206881683F22C8F20002114209D0E06D0D
:100CE00040F01000E065206E40F001002066012514
:100CF0004AE006F04FFE06F061FE10F4000F19D036
:100D000040F24C00C2F200000068800942F66351D4
:100D1000C0F23E51A0FB0101880900EB40000C210C
:100D200001EB800002E000BF0198013801900198BA
:100D30000028F9D103F008FC05462068016811F08D
:100D4000010F16D106F0A2FE10B9206806F022FEAF
:100D500003F0FAFB401B032804D32068006810F05E
:100D6000010F08D02068016811F0010FEAD00025BA
:100D70000AE0002508E0E06D40F01000E065206E1C
:100D800040F0010020660125284602B0B0BD0000F9
:100D900080B58B800A6041F2E52CC0F6000C01237F
:100DA000038041F2A523C0F6000341F24D22C0F6B4
:100DB000000241F2ED2EC0F6000EC0E901C3C0E909
:100DC000032E416180BD0000FEE70000024640F2B4
:100DD0000001C2F200010820C86041F2F470C2F2C2
:100DE000000090F86C0140F4A060086040F6645088
:100DF000C2F2000002F0D8BD21281BD0202837D134
:100E0000086840F2A812C2F200021060087941F2AC
:100E10008022C2F200021070487941F28422C2F2AC
:100E200000021070887940F2AC11C2F20001087023
:100E30000020704740F2A810C2F20000006808705D
:100E4000020A4A70020C8A70000EC87041F28020BB
:100E5000C2F200000078087141F28420C2F2000062
:100E60000078487140F2AC10C2F20000007888713E
:100E7000002070470020704710B540F6FC04C2F215
:100E8000000440F2BC71C2F200012046002209F0C9
:100E900061FE40F2BC61C2F20001204609F050FE42
:100EA000002010BDB0B5044600F00EF840F6FC0579
:100EB000C2F200052846214609F042FE284609F004
:100EC00017FE0020B0BD0000B0B504460D68002D2F
:100ED00008BFB0BD14F8010B0EF05AF9013DF9D16D
:100EE000B0BD000080B500F003F8002080BD000018
:100EF00042F2E030C2F2000000F04EB80A4601466D
:100F000040F6FC00C2F20000D0F8BC02D0F8140297
:100F100000281CBF0120704710B540F6FC04C2F247
:100F20000004204609F016FE2046BDE8104009F0F6
:100F3000A5BE0000B0B50C46054640F20C41FFF7D7
:100F400067FB05F50070C5F80C44C5F80054C5F8FA
:100F50000404B0BD10B50446B4F8081429B1D4F89F
:100F60000C2412B194F80A0400B110BDD4F80404A2
:100F70009047002818BF10BD0020A4F808040120E5
:100F800084F80A04D4F80004D4F80414C4F8001453
:100F9000C4F8040410BD0000002180F80A14FFF713
:100FA000D9BF000070B515460E460446142003F064
:100FB0003FFBB4F80804C0F5007189B2A94204D21D
:100FC000142003F037FB002070BDD4F8041408444B
:100FD00031462A46FFF7A5FAB4F808042844A4F8D5
:100FE00008042046FFF7B6FF142003F023FB01207E
:100FF00070BD000010B50023B9B14FF4FF7C00BFF5
:10100000027882EA030E0139002400BF0CEA4E0385
:101010001EF0800F18BF83F007030134E2B2082AE4
:101020009E46F3D301300029EAD1D8B210BD0000AA
:10103000006A7047B0B50446FFF7FAFF0546286816
:10104000FFF7FCFD6868FFF7F9FD286801F004FD73
:1010500000206070B0BD000010B5C1E9002300227F
:10106000028041F2BD03C0F6000341F2990CC0F6C4
:10107000000C41F2350EC0F6000E41F2DD04C0F660
:101080000004C0E90122C2600361C0F814C0C0F8C6
:1010900018E0C0E9074110BDB0B50446FFF7C8FF2E
:1010A00005462868FFF70AFE6868FFF707FE28680C
:1010B00001F04CFC01206070B0BD0000B0B50446EA
:1010C000FFF7B6FF054628687F2101F0B9F9686887
:1010D0007F2101F0B5F901202070B0BD10B50446A4
:1010E000FFF7A6FF4168096891ED200A9FED191AE4
:1010F0009FED192AB8EE400A9FED183A31EE400AEA
:101100009FED171A80EE020AB3EE044A20EE030A9E
:1011100080EE040A80EE010A84ED010A006800688E
:1011200090ED205A9FED0F6AB8EE455A35EE065AFB
:1011300085EE022A22EE032A82EE042A82EE011AAA
:1011400030EE010AB1EE400A84ED021A84ED030A82
:1011500010BD00BF0000004500F07F453333534011
:10116000CDCC4C3D000000C540F6A440C2F20000CA
:1011700002F05ABA40F60450C2F2000002F054BA2B
:1011800080B540F2084EC4F2020E0EF58F62C264C2
:101190000268D0F844C00EF58363724538BF0EF57F
:1011A0007E732CF00301194481646FF0070151FA3A
:1011B00082F14CF6CD43CCF6CC43A1FB03130621C0
:1011C00001EB1311724538BF190901F01F0101220B
:1011D00002FA01F1016580BD40F60011C4F202017E
:1011E00001F1400C436803F07F03013B01EB8301F5
:1011F00003F01F0301229A40C0E9151CC265704725
:1012000010B5D0E913CECCF804E0D0F854C0BCF14E
:10121000000F1CBFD0E916CECCF804E0D0E910CE08
:101220000EF01F0E012404FA0EF4CCF804400468FA
:10123000636080681028084608BF1046A06008BF99
:101240000A46E26010BD00004069704770B5044670
:10125000FFF7FAFF05469FED120A21692046F0EEDE
:10126000400AB0EE401A884728680026002105F0A1
:10127000FBFE2868042105F0F7FE2868082105F028
:10128000F3FE2868002105F073FA2868042105F0B0
:101290006FFA2868082105F06BFA667070BD00BF10
:1012A00000000000B0B50446FFF7CEFF05462868F1
:1012B000002105F045FE2868042105F041FE28685C
:1012C000082105F03DFE2868002105F0E7F92868AF
:1012D000042105F0E3F92868082105F0DFF9012071
:1012E0006070B0BD012101707047000080B52DED28
:1012F000068BB0EE418AB0EE609AB0EE40AA41781B
:10130000E9B1FFF7A1FF818800EE101AB8EE400A9C
:10131000006820EE0A1ABCEEC11A006820EE092A05
:1013200020EE080A11EE101ABCEEC21A4163BCEEA0
:10133000C00A11EE101AC16310EE101A8163BDECE1
:10134000068B80BD704700004069704710B50446A9
:101350002078002808BF10BD2046FFF7F5FF02687F
:1013600081881046012203F0E7F80020607010BD6C
:10137000F0B581B00446207808B32046FFF7E4FFBB
:1013800005462868A9880127012203F0D5F8A86836
:1013900040F24406C2F20006314601224FF0FF330C
:1013A00004F082FE2868A988002203F0C5F8A86826
:1013B000314602224FF0FF3304F076FE677001B031
:1013C000F0BD00004178002904BF9FED120A70476C
:1013D00010B5FFF7B9FF806840F24824C2F200045C
:1013E000214604224FF0FF3304F08EFD207861780F
:1013F00049089FED090A41EAC0109FED081A02EE64
:10140000100AB8EEC22A22EE000A30EE000A20EEE0
:10141000010A10BD0000000000000038DB0F494049
:10142000012101707047000080B58B800A60029A2C
:101430008A6041F2214CC0F6000C0023038041F287
:101440007133C0F6000341F24D32C0F6000241F2A2
:10145000C53EC0F6000EC0E901C3C0E9032E4161DC
:1014600080BD0000EFF3108072B600BFFEE7000001
:1014700040F66450C2F2000002F0BABB40F664507D
:10148000C2F2000002F0B4BB4AF20041C4F2000113
:1014900001640268D2F88030D0F834C023F4F81325
:1014A00043EA0C43C2F8803001F170034364D2F880
:1014B0008030D0F838C023F0706343EA0C63C2F880
:1014C000803001F5C472C26401F1B002826401F59A
:1014D0001872026501F51E724265002001F5547212
:1014E00041F8040B9142FBD3704700002DE9F04313
:1014F000D1E900CED1E90248D1E90469D1E9065722
:1015000034434CEA040646F08046BEF1000F08BFA3
:1015100044EA8C46406D03EBC3030C6A40F8336029
:1015200000EBC30047EA04632B4343EA090343EAA1
:1015300008434360CB68002B08BFBDE8F083083048
:10154000002343F6002CC0F6010C00BFD758C7504B
:10155000CF681CF807700433BB42F7D3BDE8F083B3
:10156000B0B588B00025CDE902550495012005905D
:101570004FF48060069040F20F40079040F66454AC
:10158000C2F2000402A9204602F034FA0095204677
:1015900002210222002302F05FFA204602F048FDF9
:1015A00020460121002202F07DF908B0B0BD000004
:1015B00040F2B010C2F20000027F42F20001C4F219
:1015C0000201032A03D0022A15D0012A1FD10B6879
:1015D00023F400730B600B6843F400630B600B682B
:1015E00023F400630B600B6843F400730B6002F09C
:1015F000FE02022A0BD10A6842F480520A600A688D
:1016000022F480520A600A6842F480620A60002173
:1016100001777047C00742F21400C4F202001EBFF7
:10162000016841F004010160016841F4803101600A
:10163000704700004FF4FF6101EAC00042F214015C
:10164000C4F202010A6822F4FC72104308600868C0
:1016500040F002000860086840F48030086070477D
:1016600042F2140CC4F2020CDCF8001041F001014B
:10167000CCF800100260BFF36F8F4360704700002A
:1016800042F21402C4F20202136843F4802313608E
:10169000EFF3108CEFF3108372B6402351F8042B54
:1016A00040F8042B013B13F0FF0FF7D18CF31088A7
:1016B0007047000070B5044602F046FF054642F24E
:1016C0001006C4F2020600BF306810F4803F07D055
:1016D00002F03AFF401BA042F6D90320C0B270BD11
:1016E00030684CF2FA3108400AD040F2B011C2F230
:1016F00000014A6802434A6030600120C0B270BDF8
:10170000306810F0010F1CBF012030600020C0B213
:1017100070BD00002DE9F04F81B02DED088BC0B0F9
:1017200040F2FC70C2F2000040F61401C2F2000167
:1017300041F20812C2F2000240F64D03FFF728FB07
:1017400041F2A400C2F20000009040F61C00C2F278
:10175000000040F63401C2F2000140F60002C4F677
:1017600000021023FFF760FE40F6D000C2F2000036
:1017700040F6F401C2F2000140F6CC32C2F200029F
:1017800040F63843C2F20003FFF766FC41F6C43B63
:10179000C2F2000B41F6DC31C2F200014DF600024C
:1017A000C0F6010258464FF4205307F0DFFF9FEDCB
:1017B000498A40F68804C2F200042046B0EE480A86
:1017C00006F0C0FA40F64005C2F200052846B0EE29
:1017D000480A06F0B7FA9FED400A41F67C36C2F29D
:1017E0000006304606F0AEFA9FED3C8AB2EE049A4F
:1017F000B7EE00AABFEE00BA33AF38460121B0EE13
:10180000490AF0EE4A0AB0EE481AF0EE481AB0EE75
:101810004A2AF0EE4B2A07F001F90DF198084046EC
:101820000121B0EE490AF0EE4A0AB0EE481AF0EE95
:10183000481AB0EE4A2AF0EE4B2A07F0EFF89FED77
:10184000280ADFED280A9FED281ADFED281A9FED00
:10185000282ADFED282A0DF164094846002107F007
:10186000DDF89FED250ADFED250A9FED252ADFED46
:10187000252A0DF1300A50460021B0EE481AF0EE4C
:10188000481A07F0CBF808A880E800078DE8700038
:1018900040F2FC70C2F20000039040F61C00C2F25D
:1018A0000000CDE9040B40F6D000C2F20000CDE903
:1018B000060741F2F470C2F200000E2141F28832B4
:1018C00044F6206307F03CFA40B0BDEC088B01B051
:1018D000BDE8F08F0080BB44000096430000C07F4D
:1018E000A69B443BEE93A33800401C4600401CC618
:1018F0003333D33F3333D3BF00009644000000009E
:1019000000007A4400007AC4F0B581B02DED108B50
:101910000446E07908B1207A18B1BDEC108B01B013
:10192000F0BD00206072204600F096FAD4F8E00086
:101930009FEDAA9A0169B0EE490AF0EE490AB0EEAD
:10194000491A88479FEDA6AA9FEDA6BA9FEDA6CAA1
:10195000B0EE498AD4F8E80094ED410A90ED011AFE
:1019600031EE400AB4EECA0AF1EE10FA13DAD4F8F6
:10197000E000016938EE0B8AB0EE480AF0EE490A41
:10198000B0EE491A884701200CF08EFDB4EECC8AE7
:10199000F1EE10FADEDB0020C4F8FC0064259FEDB8
:1019A00093DAB0EE089AB1EE00AA00BFD4F8E800CE
:1019B00094ED3F0A94ED411A94ED592A90ED013AC5
:1019C00028EE022A33EE411A82EE011A81EE091A3C
:1019D00021EE0A1A81EE0D1A30EE010A84ED3F0A5B
:1019E00001200CF061FD013DE0D19FED7CBA204665
:1019F000B0EE4B0AF0EE4B0AB0EE4B1A00F008FCCA
:101A000028EE0A0AFFEE000AB7EE001A80EE090A75
:101A10000BF0E4FDB0EE408A9FED750A28EE009AC7
:101A20002046B0EE490AF0EE4B0AB0EE4B1A00F039
:101A3000EFFB642564200CF037FD00BFD4F8E40010
:101A40000169884780EE0D0A013D3BEE00BAF5D1F1
:101A500000259FED68EA9FED68AA9FED60CA00BF70
:101A600000EE105AB8EEC00A20EE0E0A80EE0A1AF6
:101A70002046B0EE490AF0EE4C0A00F0C9FB012006
:101A80000CF012FD0135B5F5FA7FE9D1642500BFF0
:101A9000D4F8E4000169884780EE0D0A013D3CEE70
:101AA00000CAF5D19FED4DAA2046B0EE4A0AF0EEED
:101AB0004A0AB0EE4A1A00F0ABFB9FED500A9FEDC8
:101AC00050FA00203BEE000AB4EECBCAF1EE10FA59
:101AD0004FF00001C8BF0121B4EEC0CAF1EE10FA08
:101AE0004FF00002B8BF01223BEE0F0A1140B4EEE6
:101AF000C0CAF1EE10FAB8BF0120084384F8F8001C
:101B00002078002847D000259FED34BADFED3D8ACC
:101B1000B0EE4BAA002600BF00EE106AB8EEC00A75
:101B200020EE0E0A80EE281A2046B0EE490AF0EEAA
:101B30004B0A00F06DFB01200CF0B6FC0136FA2ECA
:101B4000EAD12046B0EE480AF0EE4B0AB0EE4B1A4E
:101B500000F05EFB4FF496700CF0A6FC642600BF0C
:101B600094F8F870D4F8E40001698847B0EE40CAF0
:101B700001200CF099FC3EEE4C0A002F08BFB0EE9D
:101B80004C0A80EE0D0A013E3AEE00AAE8D1207818
:101B900001358542BEDB9FED110A2046F0EE400A7A
:101BA000B0EE401A00F034FB2078411E00EE101A0F
:101BB00001EE100AB8EE400AB8EE411A00EE0FAA84
:101BC00001208AEE010A607284ED430A0A20BDEC0E
:101BD000108B01B0BDE8F0400CF066BC00000000C6
:101BE0007A14BE3F6F12833ACDCC4C3F0000C842FE
:101BF0009A99193FDB0FC9400000FA43DB0F4940B7
:101C0000DB0F49C000007A43B0B52DED028B0C46C6
:101C10000546042C54D8DFE804F0031520380C00E6
:101C200095ED251AD5ED260A0BF0D8FC85ED450A71
:101C300046E085ED4A0A95ED460A05F1AC0006F04E
:101C400001FF3DE095ED321AD5ED330A0BF0C6FCED
:101C500005F1780006F0F6FE32E0DFED1B0A9FED9D
:101C60001B8AB0EE481A00F0B5FB95ED461A9FEDC1
:101C7000182A30EE411AB4EEC21AF1EE10FA12DD53
:101C80009FED151A30EE010A16E005F1AC00697BF4
:101C9000A14214BF95ED461A95ED2C1A31EE000ABB
:101CA00006F0D0FE0CE09FED0B2AB4EEC21AF1EE66
:101CB00010FAB8BF30EE080A05F1AC0006F0C2FE1B
:101CC0006C73BDEC028BB0BD00000000DB0FC9409F
:101CD000DB0F4940DB0F49C0DB0FC9C010B52DED4C
:101CE000028B0446E079002800F09D80607A00288D
:101CF00000F09980207A18B9207B002800F09680A7
:101D000094ED468A607B042800F28780DFE800F0CB
:101D10004F471C1C03009FED4A0A94ED2C1A94EDCA
:101D20004A2A60889FED473A22EE000A02EE100A26
:101D3000B8EE422A80EE020A80EE030A04F1AC00FB
:101D400031EE000A06F07EFE40F25020C2F20000A2
:101D500090ED000A9FED3D1A30EE480AB4EEC10A3C
:101D6000F1EE10FA02DD9FED380A08E09FED381A17
:101D7000B4EEC10AF1EE10FA07DA9FED310A94EDE4
:101D80002C1A30EE010A84ED2C0A04F1AC00B0EEFE
:101D9000480A06F0AFFD04F1780006F053FE94ED1A
:101DA000490A04F1780006F0A5FD84ED450AA07A01
:101DB00068B3E07A58B3207B48B39FED260A9FEDC5
:101DC000231AB6EE002A28EE000A20EE020A80EE60
:101DD000010A30EE020ABDEEC00A10EE100A44F607
:101DE000D351C1F26201A0FB0112D1094FF4FA6292
:101DF00001FB1200D4F8101101EB800094ED450AAC
:101E000090ED001A04F1100030EE010A03E094EDA9
:101E1000450A04F1100006F015FE40F25020C2F20F
:101E2000000080ED008ABDEC028B10BDD4F81801D3
:101E300040F25021C2F200010860BDEC028B10BDDF
:101E4000DB0FC94000007042DB0FC9C0DB0F494007
:101E5000DB0F49C00000FA4470B52DED028B04463B
:101E6000E07908B1207A10B1BDEC028B70BD9FED16
:101E70001A0A657A002666722046F0EE400AB0EE35
:101E8000401A00F0C5F91E200CF00EFBC4E94166B3
:101E9000C8269FED128A00BFD4F8E80090ED010A31
:101EA00094ED411A94ED422A80EE080A31EE000AC0
:101EB00084ED410A90ED020A80EE080A32EE000A33
:101EC00084ED420A01200CF0EFFA013EE4D1657284
:101ED000BDEC028B70BD00BF000000000000484355
:101EE00010B50446A079002808BF10BDD4F8E00062
:101EF000417859B981688847D4F8E0009FED0B0A12
:101F00000169F0EE400AB0EE401A8847D4F8E400C8
:101F1000417809B981688847D4F8E800417809B95F
:101F2000416988470120E07110BD00BF000000003A
:101F300010B50446D4F8E000017809B94168884733
:101F4000D4F8E400017809B941688847D4F8E8007A
:101F5000017809B9016988470120A07110BD00000E
:101F6000F0B581B01D4616460F4604464FF4B471D5
:101F7000FEF74EFB66802770A5800698C4F8EC003B
:101F80000798C4F8F0000898C4F8F4000998C4F859
:101F9000E0000A98C4F8E4000B98C4F8E8000C9834
:101FA00090E88E00D0E90465C4E9086504F1100CDE
:101FB0008CE88E0000F118078ECFD0E90A65C4E9DD
:101FC0000E6504F1280C8CE88E00006B20640D98DF
:101FD00090E88E00D0E90465C4E9156504F1440C6D
:101FE0008CE88E0000F118078ECFD0E90A65C4E9AD
:101FF0001B6504F15C0C8CE88E00006B60670E982A
:1020000090E88E00D0E90465C4E9226504F1780CFB
:102010008CE88E0000F118078ECFD0E90A65C4E97C
:10202000286504F1900C8CE88E00006BC4F8A800C1
:102030000F9890E88E00D0E90465C4E92F6504F19B
:10204000AC0C8CE88E0000F118078ECFD0E90A6541
:10205000C4E9356504F1C40C8CE88E00006BC4F84B
:10206000DC004FF4FA600421FEF75CF9C4F81001BB
:10207000012084F8F8000020C7F6C070C4E93F00D2
:102080004FF07E50C4F864010020607301B0F0BDD1
:10209000B0B52DED068B0446E079002856D0607A65
:1020A000002853D0D4F8E80094ED410A94ED421A88
:1020B00090ED012A90ED023A90ED034A30EE044A89
:1020C00032EE400A73EE410A31EE041A204600F067
:1020D000FBF894ED43AA94F8F850D4F8E4000169B1
:1020E0008847B1EE401A9FED448A9FED449A002D37
:1020F00008BFB0EE410A3AEE000AF0EE480AB0EE30
:10210000491A00F067F984ED460A207801EE100ABA
:10211000B8EE411A20EE010AF0EE480AB0EE491A74
:1021200000F058F994ED461A94ED473A33EE412AFF
:102130009FED334A31EE431A84ED480AB4EEC42AC7
:10214000F1EE10FA05DD31EE091A0DE0BDEC068B5B
:10215000B0BD9FED2C0AB4EEC02AF1EE10FABCBF60
:102160009FED290A31EE001A9FED280AD4F8F400F9
:10217000A18802EE101A21EE000AB8EE421A016898
:1021800020EE010A80EE090A884784ED490AD4F856
:102190001801C4F81C01207A08B9207B20B394ED03
:1021A000580A04F1440006F0A5FB40F25420C2F2A4
:1021B000000080ED000A94ED570A04F1100006F0CB
:1021C00099FBB0EE408A40F25420C2F2000094ED38
:1021D000481A90ED000A2046F0EE480ABDEC068B46
:1021E000BDE8B04000F014B840F25420C2F2000044
:1021F00000210160E7E700BF00000000DB0FC940DD
:10220000DB0F4940DB0F49C0DB0FC9C00000704243
:1022100010B52DED088BB0EE418A04469FED201AD3
:1022200020EE81AA20EE01BA84ED50AA84ED51BAC5
:10223000B0EE480A0FF082FCB0EE409AB0EE480AC9
:102240000FF07CFD2BEE001A2BEE092A9FED153ABC
:10225000B6EE004A0AEE091A0AEE402A21EE045AA6
:1022600022EE042A25EE031AB7EE083A32EE040AEB
:1022700002EE441A33EE403A71EE040A33EE601A6D
:1022800004F5967080EC030A84ED4E2A84ED4F5AD3
:10229000D4F8E0000169BDEC088BBDE810400847A8
:1022A000A4707D3FD7B35D3FC179002908BF704757
:1022B000417A00291CBF012101727047002101727F
:1022C000704700000000000070B52DED068BB0EEE9
:1022D000418AB0EE609AB0EE40AA04461AEE100AA7
:1022E00011F040F805460E4619EE100A11F03AF8C2
:1022F00002460B4610F03CF82A46334610F038F8F8
:102300009FED1F0B53EC102B10F008FC84ED52AA2C
:1023100084ED539A84ED548A84ED55AA0FF052FF50
:1023200094ED480AC4F858010FF008FCB0EE408A5A
:1023300094ED480A0FF002FDB0EE409A94ED551A64
:1023400094ED560AD4F8EC0028EE000A016809EE74
:10235000410A884794ED551A94ED562A84ED570AA0
:10236000D4F8F00028EE010A016809EE020A884755
:1023700084ED580ABDEC068B70BD00BF00BF00BFE6
:1023800000000040A779E23FB5EE400AF1EE10FAF6
:1023900008BF704790ED591A90ED062A90ED073A64
:1023A00090ED134A90ED145A81EE001A22EE012AA4
:1023B00021EE044A21EE033A21EE051A80ED590A76
:1023C00080ED062A80ED073A80ED134A80ED141A5D
:1023D0007047000080B52DED048BB0EE418AB0EE61
:1023E000609A30EE490A78EE490A0FF04FFCB5EEDC
:1023F000C00AF1EE10FAB8BFB0EE489A30EE090A02
:10240000BDEC048B80BD000047F29051C1F6FF7116
:1024100008688A68801808BF7047B0B54C6840F2F9
:102420008C15C2F20005A91C082205F085FA05F1F9
:10243000120120460422BDE8B04005F07DBA00003C
:1024400070B582B00E4604460020019094F8580002
:10245000012801D1022537E0012084F858002046E8
:10246000FEF7ECFB0546E06D15B140F0100027E0EB
:1024700041F20211884340F00200E06520683146D5
:1024800005F01EFC206805F0F5FA70B14DF6026605
:10249000C0F204060198013001900198B04209D2BF
:1024A000206805F0E7FA0028F4D1E06D012161F31E
:1024B000010005E0E06D20F0120040F01000012561
:1024C000002184F85810E065284602B070BD000075
:1024D000704700002DE9F04182B00D46044600200F
:1024E000019094F85800012801D1022727E2012029
:1024F00084F85800606910B1296A012919D1686807
:1025000009283ED12868A96A4FF4785202EA50405F
:1025100021B101F07C010843E96A08432168CA6CD3
:1025200044F20003C0F210431A400243CA646066DA
:1025300027E0A26E00204AB9C4E91901481EA96A21
:1025400021B101F07C010843E96A0843D5E9001292
:10255000D4E91937013FA76602F01F02C1F3846175
:1025600001FA02F140EA010040EA0300606608D186
:102570002168CA6C44F20003C0F210431A401043B1
:10258000C864206805F056FA80B995F825302068AF
:10259000C16821F4401195F826205205002B04BF94
:1025A00095F8243042EA03521143C160206805F0D7
:1025B00081FA0646206805F03DFA304301D0002735
:1025C000EDE0A86A58B1E86A48B195F825000128FD
:1025D00011D1E06D40F02000E065012711E095F891
:1025E00025002168CA6822F00073012808BF42F064
:1025F0000073CB6004E02068C16821F00071C16005
:10260000002795F8302020680169012A08D1D5E912
:102610000D2321F4FF711143194341F0020101E040
:1026200021F0020101612968AA68B2F1004F06D1C8
:10263000002205F08BFA20684FF0004103E005F01E
:1026400085FA2068002105F035FBD5E904122068E1
:10265000C368042940F08C80002105F0DDF90646AE
:102660002068002105F0D8F9C0F3846190FAA0F049
:102670004FF6FF78C0F2070816EA080F18BFB0FA45
:1026800080F12868C0F3846290FAA0F310EA080F82
:1026900018BFB3FA83F2914203D12068002105F0FC
:1026A000FBFA2068012105F0B7F9064620680121F0
:1026B00005F0B2F9C0F3846190FAA0F016EA080FB1
:1026C00018BFB0FA80F12868C0F3846290FAA0F3D2
:1026D00010EA080F18BFB3FA83F2914203D12068C1
:1026E000012105F0D9FA2068022105F095F9064686
:1026F0002068022105F090F9C0F3846190FAA0F0FF
:1027000016EA080F18BFB0FA80F12868C0F3846297
:1027100090FAA0F310EA080F18BFB3FA83F29142BF
:1027200003D12068022105F0B7FA2068032105F0E3
:1027300073F906462068032105F06EF9C0F3846141
:1027400090FAA0F016EA080F18BFB0FA80F12868D6
:10275000C0F3846290FAA0F310EA080F18BFB3FA2E
:1027600083F291421BD12068032105F095FA16E00F
:10277000062606EA930302FA03F32A6805F054FAE0
:102780002969AA69206805F077FA296920682A7FF3
:10279000013AB2FA82F25209520605F05DFA206857
:1027A00005F078F900286BD12968EA68206805F0FF
:1027B000F5F9E8680021C4F27F01884260D12B68F6
:1027C0001A466FF3DF4293FAA3F0B0FA80F1002AC1
:1027D000084608BF980E013000F01E062068092E3A
:1027E0000ED8E2B14A1C02F01F02012303FA02F2E2
:1027F0004FF0806303EB816303F0F8431A431DE05D
:102800000AB34A1C02F01F02012303FA02F24FF03E
:10281000806303EB816303F0F8431A4322E0012154
:1028200001EB936202F01F02914003F0F84202F1C3
:10283000806202F0F8420A43C3F38461013101F07F
:102840001F01002314E0012101EB936202F01F023B
:10285000914003F0F84202F1806202F0F8420A432C
:10286000C3F38461013101F01F010A394FF0007395
:1028700001EB410143EA01511143AA6805F066F9F1
:10288000688848F20801084256D005F09FF8296888
:102890000022CCF22132914204D01022C9F2C002AF
:1028A000914224D1010247D42168B1F1A04F43D114
:1028B00040F4000005F09EF940F24C00C2F2000026
:1028C0000068800942F66351C0F23E51A0FB01014D
:1028D000880900EB4000182101EB800002E000BFF6
:1028E00001980138019001980028F9D124E00022D4
:1028F000CCF25272914208BF10F0807211D00022C7
:10290000CCF68432914208BF10F4800114D12168C2
:1029100040F20012C5F2000291420DD040F4800056
:1029200008E0216840F20012C5F20002914203D093
:1029300040F0807005F05EF9002084F85800F8B28D
:1029400002B0BDE8F081000070470000B0B5044659
:1029500005F054F80546206805F06CF800281CBF07
:102960000220B0BD2068C168C06C002908DB10F4EB
:10297000C07005D1E06D40F02000E0650120B0BDE1
:1029800094F85800012804BF0220B0BD012084F84B
:1029900058002046FEF792F900281EBF002184F857
:1029A0005810B0BDE06D10F4807F1ABF206E20F08B
:1029B000080000202066E06D43F20101884340F4E6
:1029C0008050E065206840F20011C5F200018842A5
:1029D000844608BF4FF0A04C002D18BF844503D19A
:1029E000E26D22F48012E26560220260002284F827
:1029F0005820C26812F4001F1EBF426842F4806271
:102A00004260A2696FF04003082A08BF6FF02003FC
:102A10004168194041602021082A08BF40214268CE
:102A200011434160844506D0072D0FD80121A940EC
:102A300011F0C10F0AD004F0F5FF00281CBF0020E0
:102A4000B0BD206805F002F80020B0BDE06D40F494
:102A50008010E0650020B0BD10B5044694F8580021
:102A6000012804BF022010BD012084F85800204630
:102A70000221FEF775F888B92068416821F48C615D
:102A8000416005F017F828B1E06D20F48050E06552
:102A9000002003E02046FEF7D1F818B1002184F8A9
:102AA000581010BDE06D41F20111884340F0010063
:102AB000EDE7000070470000704700002DE9F0418D
:102AC00082B00D46044694F85800012801D1022036
:102AD00020E0012084F85800002001900090206838
:102AE000B0F1A04F0ED140F20838C5F20008A8F5A9
:102AF0000276304604F0DEFF0746206804F0DAFF75
:102B000038430BD0E06D40F02000E065012000214B
:102B100084F85810C0B202B0BDE8F0812968D8F836
:102B2000000020F46040D9B16968084394F8381077
:102B300040EA4130C8F800004FF0A04004F0AAFF7E
:102B40000746304604F0A6FF384315D1D8F80000F8
:102B500040F61F7188432968AA680843104312E0B1
:102B6000C8F800004FF0A04004F094FF054630463E
:102B700004F090FF284301D00020C8E7D8F80000F7
:102B800040F61F718843C8F800000020BFE700002E
:102B9000F0B581B00D4604460020009094F858002E
:102BA000012801D102215DE1012084F8580020684C
:102BB00004F07CFF28B1E06D40F02000E0650121C9
:102BC0004DE1D5E90021206804F080FF206804F081
:102BD0006DFF0646206804F029FF304340F0B580C1
:102BE0002968AA682068B2F1004F06D1002204F0DB
:102BF0009DFF20684FF0004103E004F097FF20683C
:102C0000002105F051F8D5E904122068C3680429B1
:102C100040F08480002104F0F9FE0646206800217F
:102C200004F0F4FEC0F3846190FAA0F04FF6FF7751
:102C3000C0F207073E4218BFB0FA80F12868C0F31F
:102C4000846290FAA0F3384218BFB3FA83F291423B
:102C500003D12068002105F017F82068012104F055
:102C6000D5FE06462068012104F0D0FEC0F3846141
:102C700090FAA0F03E4218BFB0FA80F12868C0F385
:102C8000846290FAA0F3384218BFB3FA83F29142FB
:102C900003D12068012104F0F7FF2068022104F02D
:102CA000B5FE06462068022104F0B0FEC0F3846140
:102CB00090FAA0F03E4218BFB0FA80F12868C0F345
:102CC000846290FAA0F3384218BFB3FA83F29142BB
:102CD00003D12068022104F0D7FF2068032104F00B
:102CE00095FE06462068032104F090FEC0F384613F
:102CF00090FAA0F03E4218BFB0FA80F12868C0F305
:102D0000846290FAA0F3384218BFB3FA83F291427A
:102D10001BD12068032104F0B7FF16E0062707EA5D
:102D2000930302FA03F32A6804F06EFF2969AA6983
:102D3000206804F099FF296920682A7F013AB2FAD5
:102D400082F25209520604F07FFF206804F09EFED2
:102D500000286BD12968EA68206804F007FFE8685A
:102D60000021C4F27F01884260D12B681A466FF3BC
:102D7000DF4293FAA3F0B0FA80F1002A084608BFB8
:102D8000980E013000F01E072068092F0ED8E2B11E
:102D90004A1C02F01F02012303FA02F24FF0806383
:102DA00003EB816303F0F8431A431DE00AB34A1CA6
:102DB00002F01F02012303FA02F24FF0806303EBDB
:102DC000816303F0F8431A4322E0012101EB93628F
:102DD00002F01F02914003F0F84202F1806202F01B
:102DE000F8420A43C3F38461013101F01F0100235B
:102DF00014E0012101EB936202F01F02914003F005
:102E0000F84202F1806202F0F8420A43C3F384619F
:102E1000013101F01F010A394FF0007301EB41014C
:102E200043EA01511143AA6804F080FE688848F221
:102E30000801084212D004F0C1FD2A680021CCF23A
:102E400021318A4204D01021C9F2C0018A420CD13A
:102E5000010203D42168B1F1A04F21D0002100204C
:102E600084F85800C8B201B0F0BD0021CCF2527114
:102E70008A4208BF10F0807133D000210023CCF6C5
:102E800084339A4208BF10F48002E8D1216840F2EE
:102E90000012C5F200029142E0D040F4800029E027
:102EA00040F4000004F09CFE40F24C00C2F200002E
:102EB0000068800942F66351C0F23E51A0FB010157
:102EC000880900EB40000C2101EB80000090009885
:102ED000002103E000980138009000980028F9D103
:102EE000BDE7216840F20012C5F200029142B5D060
:102EF00040F0807004F074FE0021B0E770470000DD
:102F0000704700002DE9F04381B004462068016855
:102F1000406801EA0007BD0704F068FD8146002D06
:102F20000DD5E06D10F0100F02BFE06D40F40060B1
:102F3000E0652046FFF7CCFA20680221016078079F
:102F400040F20018C5F2000858BF5FEA07704CD580
:102F5000254655F85C0F10F0100F02BF286840F4AA
:102F600000702860206804F0A9FDC0B320684045C7
:102F7000014608BF4FF0A041814202460CD0B9F192
:102F8000090F00F2E480012202FA09F240F2212343
:102F90001A42024608BF0A46D16811F4005F1ED1EA
:102FA000016811F0080F1AD004F080FD30B1E06D17
:102FB00040F01000E06504F160050CE02068416815
:102FC00021F00C014160E06D20F48070E065E06D5F
:102FD00010F4805F03D1286840F00100286020468B
:102FE000FFF78CFF20680C210160B80658BF5FEA2C
:102FF000476051D5254655F85C0F10F0100F02BF01
:10300000286840F400502860206804F017FD064648
:10301000206804F053FD01462068404502460CD16B
:10302000B9F1070F07D8012202FA09F212F0C10F15
:1030300001D0424601E04FF0A042D26836B393017E
:1030400003D519B312F4005120D1016892021DD4A6
:1030500011F040011AD004F0E9FC30B1E06D40F00D
:103060001000E06504F160050CE02068416821F083
:1030700060014160E06D20F48050E065E06D10F487
:10308000807F03D1286840F00100286020460EF0C0
:1030900038FD206860210160380609D5E06D40F4F4
:1030A0008030E065204600F03DF920688021016015
:1030B000F8050AD5E06D40F40030E0652046FFF7E2
:1030C000F9FC20684FF480710160B8050AD5E06D05
:1030D00040F48020E0652046FFF7EEFC20684FF4C6
:1030E00000710160F80615D5E06B28B1B9F1000F49
:1030F00027D004F073FC50B1E06D40F48060E065CF
:10310000206E40F0020020662046FFF7F9FE20689E
:103110001021016078055CBF01B0BDE8F083206834
:10312000E16D41F48041E165216E41F008012166C5
:103130004FF480610160204601B0BDE8F043FFF725
:1031400003BC2068C06810F0010FD5D1DFE70A4644
:1031500022E70000F0B581B00446002000909CB347
:10316000E06D30B9204600F0DFF8002084F8580008
:103170002066206804F082FC10B1206804F002FC94
:10318000206804F08BFCC8B9206804F00DFC40F204
:103190004C00C2F200000068800942F66351C0F2A0
:1031A0003E51A0FB01018809022101EB400001E032
:1031B00000980138009000980028F9D1206804F0A8
:1031C0006DFC18B100250AE00125A8E0E06D40F093
:1031D0001000E065206E40F00100206601252068A7
:1031E00004F064FC0646E06D00F010003043E06D32
:1031F00003D040F01000012590E020F4817040F0F1
:103200000200E065206804F041FC78B94FF0A0406E
:1032100004F03CFC074640F20010C5F2000004F048
:1032200035FC384302D1606804F0D0FC607FE16B6C
:1032300041EA4030D4E902121043084394F82420B4
:1032400040EA0241012A06D1A06A0022CFF6FE72AE
:1032500002EB40400143E06A20B100F4787008437B
:10326000216B01432068C26844F20703CFF6F07374
:103270001A401143C1600169626B21F04061114342
:10328000016104F0D3FB304339D1207F94F838102A
:10329000490041EA80312068C26844F202039A433F
:1032A0001143C1602169026949B142F4803202616F
:1032B000D0F8C02043F6FF739A43114307E022F48D
:1032C00080310161D0F8C01043F6FF729143C0F81D
:1032D000C01094F840200169012A0DD140F2FD721E
:1032E000914304F144078CCF266D114319433943B0
:1032F000314341F0010101E021F001010161206849
:103300006269016B21F00F01012A02BF226A013AB2
:1033100011430163E06D012161F30100E06528467E
:1033200001B0F0BD7047000070B598B004460020B1
:103330001790CDE91500CDE9130002A84421FDF74F
:1033400067F9206840F20011C5F20001884259D0A7
:10335000B0F1A04F40F094804FF0005011904FF426
:103360000040029002A801F087FF002818BFFEF776
:1033700079F840F28420C2F2000001684A1C026021
:1033800041F24C00C4F2020041B9016841F400511D
:103390000160016801F4005101910199016841F057
:1033A00001010160016801F00101019101990168C9
:1033B00041F002010160006800F0020001900198F4
:1033C00003251495042013900026159613AC4FF096
:1033D0009040214600F0D0FF14954FF40060139008
:1033E000159640F20040C4F60000214600F0C4FFEC
:1033F00012200421002201F01FF9122001F01AF915
:1034000018B070BD4FF0005011904FF40040029082
:1034100002A801F031FF002818BFFEF723F840F2A0
:103420008420C2F2000001684A1C026041F24C0094
:10343000C4F2020041B9016841F400510160016821
:1034400001F4005101910199016841F0010101600D
:10345000006800F0010001900198032014901020F2
:1034600013900020159013A94FF0904000F084FFB6
:1034700012200421002201F0DFF8122001F0DAF816
:1034800018B070BD38B390F82510022926D1016814
:103490000A6822F001020A600A6822F00E020A603D
:1034A000816C0A6822F480720A60D0E9101202F07E
:1034B0001F02012303FA02F24A60D0E913124A60A4
:1034C000416D31B10A6822F480720A60D0E91612A7
:1034D0004A60002105E00121084670470421C163CC
:1034E0000121002280F82420012280F825200846AE
:1034F0007047000090F8251002292FD101680A6852
:1035000022F001020A600A6822F00E020A60816C51
:103510000A6822F480720A60D0E9101202F01F03D8
:10352000012202FA03F34B60D0E913134B60416DA3
:1035300031B10B6823F480730B60D0E916134B6034
:10354000002180F8241080F82520826B22B180B5FC
:1035500090470021BDE88040084670470421C163C0
:10356000002180F82410012180F8251008467047BA
:10357000B0B504464FF0010C002C51D021680A6808
:1035800022F001020A6022680023C4F2020303F55C
:10359000816503F58063AA423CBF0023C4F20203A5
:1035A0004FF6F835CBF6FD7538BF05F580652A4432
:1035B0004CF6CD45CCF6CC45A2FB05204FF6FC726F
:1035C000C3F6FF7202EA9002C4E9103200250D60D2
:1035D0001C2101EA90000CFA00F058602046FDF72B
:1035E000CFFDA06C0560D4E913014160606801382B
:1035F000032807D82046FDF7EFFD606D0560D4E98C
:1036000016014160E563C4E91555E565C4E90B554C
:10361000C4E90D5584F8245084F825502846B0BDDF
:1036200001252846B0BD0000B0B5D0E910C4DCF8D3
:1036300000100268136804F01F0E13F0040F1EBF81
:10364000042404FA0EF414EA01051CD19C0729D5C0
:10365000022404FA0EF414EA010523D0116811F0D3
:10366000200F06D1116821F00A011160012180F8B4
:103670002510CCF80440002180F82410C16A69B3F9
:10368000BDE8B0400847116811F0200F02BF116873
:1036900021F004011160CCF80440016BF1B1BDE8E8
:1036A000B04008471B0719D5082303FA0EF3194049
:1036B00008BFB0BD116821F00E011160012101FAAF
:1036C0000EF2CCF80420C163002280F8242080F898
:1036D0002510416B11B1BDE8B0400847B0BD0000F6
:1036E000F0B581B00446002C59D0022084F82500A2
:1036F00020680021C4F2020101F5816201F58061B8
:1037000090423CBF0021C4F202014FF6F832CBF6E2
:10371000FD7238BF02F5806202444CF6CD43CCF610
:10372000CC43A2FB03234FF6FC72C3F6FF7202EAFE
:103730009302C4E91012016847F6F07221EA020C04
:10374000D4E90223D4E9041E04F11807E0CF42EAC9
:103750000C021A43114341EA0E0129433143394314
:1037600001602046FDF70CFDA068B0F5804F04BF56
:10377000002060606068A16C00F07F020A60D4E9FC
:1037800013124A60013803280CD82046FDF724FDA7
:10379000606D00210160D4E91601416006E001205E
:1037A00001B0F0BD0020C4E91500E0650020E06331
:1037B00084F82400012184F8251001B0F0BD000038
:1037C00010B5044694F82400012820D0012084F884
:1037D000240094F82500012816D1022084F8250041
:1037E0000020E063D4F800C0DCF8000020F0010005
:1037F000CCF800002046FDF703FD2068226B01682D
:1038000042B141F00E010BE0002084F824000220B8
:10381000C0B210BD21F004010160016841F00A014D
:103820000160A16C0A6812F4803F1EBF0A6842F46E
:1038300080720A60616D00291EBF0A6842F48072BE
:103840000A60016841F0010101600020C0B210BDB2
:1038500080B541F22800C4F202004FF0FF3101614F
:103860000022026181618261016002604160426008
:103870008160826000F0B6FE002080BDB0B50446D5
:1038800000F062FE054640F2D410C2F2000000686B
:10389000611C18BF044400BF00F056FE401BA0424C
:1038A000FAD3B0BD90F85C30013BDBB2012B72D88B
:1038B00010B511F0070C0068D0F858E00EF00103C5
:1038C00000D01BB311F0380F02D01EF002041DD03F
:1038D00011F4E07F02D01EF0040417D011F4F05F61
:1038E00002D01EF0080411D011F4604F02D01EF077
:1038F00010040BD011F4403F02D01EF0200405D07C
:1039000011F47C0F06D01EF0400403D1C46D44F0C6
:103910000104C465002B18BFBCF1000F23D111F0C6
:10392000380F18BF1EF002031DD111F4E07F18BF3D
:103930001EF0040317D111F4F05F18BF1EF0080346
:1039400011D111F4604F18BF1EF010030BD111F408
:10395000403F18BF1EF0200305D111F47C0F18BFA3
:103960001EF0400303D0C36D43F00203C3650B0692
:10397000BDE8104042BFD0F8DC301343C0F8DC3063
:10398000CB0542BFD0F8E0301A43C0F8E02000F188
:103990005402002003E000F16002012002211368BC
:1039A0001943116070470000B0B5044694F85C00FC
:1039B000022815D12068D0F8C43013F4001F13D1A9
:1039C000D0F8C400C0F3014520462B46FDF78EFD1C
:1039D0000120A8402168C1F8CC00A0650020B0BD3E
:1039E000206E40F0080002E0206E40F40070206677
:1039F0000120B0BD80B590F85C20013AD2B2012A16
:103A000013D80A68BAB101F1040E9EE80450D1E956
:103A10000431406C43EA4E7340F8323000EBC20090
:103A200041EA8C714160002080BD016E41F00201CD
:103A30000166012080BDD1E901CED1E903234969A6
:103A4000D20642EA8E7242EA03421143006C40F809
:103A50002C10002080BD000090F85CC0BCF1010F6C
:103A600010D1DDF800C0920042EA011141EA4301A1
:103A700041EA0C01006850F8802F22F03F020A430F
:103A8000002104E050F8601F41F0040201210260AF
:103A9000084670477047000070470000006800F15A
:103AA0009802402908BF00F19002106800F00F0052
:103AB0007047000070B590F85C50022D1ED1D0F810
:103AC00000E040291ED1DEF8905015F00F0F00F0F5
:103AD0008680DEF89040C4F3012CDEF8905015F09B
:103AE000807F08D0DEF8805015F4007F1EBF250AC5
:103AF000013505F0030C00F148051CE0016E41F0B2
:103B000008016FE0DEF8985015F00F0F67D0DEF86F
:103B10009840C4F3012CDEF8985015F0807F08D04F
:103B2000DEF8805015F4807F1EBF250A013505F0B0
:103B3000030C00F14C05D5F800E00CEBCC045EF86A
:103B4000345015F0804555605EF83450C5F38A4610
:103B500018BF25F0604616605EF8345005F0005539
:103B600095605EF8345005F0004515610EEBC40E0B
:103B7000BEF80440D461BEF8064014F00F04D460CF
:103B8000DEF8044004F480145461DEF8044004F4C8
:103B9000001494619EF8074004F07F041462DEF87C
:103BA00004404FEAD47454620ED00EF1080E002483
:103BB00043F60025C0F601051EF804601E55D668C0
:103BC000AE5D0134B442F7D3006800F19C02402995
:103BD00008BF00F19402C2F800C0002070BD016E61
:103BE00041F480710166012070BD00007047000043
:103BF0002DE9F04F85B004462068016D426D01EA61
:103C00000205D0F85090D0F854A0D0F850B0D0F8B9
:103C10005480016D0491416D0391016D0291416DDC
:103C20000191416D026D01EA0207790604D5402138
:103C300001652046FFF7DAFF09EA0A0605F4E055B8
:103C4000F8050BD52068D0F8D810D0F8E0204FF454
:103C5000807303651140204600F006FA08EA0B085D
:103C600006F007062DB1206805652046294600F0BC
:103C7000FFF908F038052EB1206806652046314668
:103C800000F088F92DB1206805652046294600F02E
:103C9000CDF9B80506D520684FF4007101652046BE
:103CA00000F0E8F938060AD52068D0F8D410D0F82A
:103CB000DC20802303651140204600F0D7F9B804CA
:103CC00006D520684FF400510165204600F0CAF97E
:103CD000DDE9011000EA0105380406D520684FF43B
:103CE00000410165204600F0BBF9DDE90310084002
:103CF00005F460217A0407D522684FF480431365E8
:103D0000226E42F08002226600F4710521B1206823
:103D100001652046FFF7C0FE25B120680565206ECD
:103D200028432066206E002804BF05B0BDE8F08F50
:103D3000204605B0BDE8F04FFFF7ACBE2DE9F041DD
:103D40000446002C04BF0120BDE8F08194F85C001B
:103D500028B9002084F85D00204600F0BFF82068F4
:103D6000816921F01001816100F0EEFB054600BF82
:103D7000206850F8181F11F0080F05D000F0E4FB80
:103D8000401B0B28F4D313E0016841F001010160EE
:103D900000F0DAFB054600BF2068014651F8182FF5
:103DA00012F0010F0ED100F0CFFB401B0B28F3D314
:103DB000206E40F0010020660120032184F85C1091
:103DC000BDE8F0810A6842F002020A6046F2004251
:103DD000C4F20002904204BF6368C2F80031227C42
:103DE0000B6843F04005012A08BF23F040050D6031
:103DF000627C0B6823F48045012A08BF43F48045A8
:103E00000D60A27C0B6843F48055012A08BF23F49F
:103E100080550D600B68D4F808C023F4407343EA62
:103E20000C030B600B6823F0A4030B60036923F001
:103E300010030361E368ABB1012B03D10B6843F0BE
:103E400004030EE00D68022B09D045F080050D60DB
:103E5000056945F010050561032B03D10D6845F098
:103E600020030B60D4E905E1D4E907324FF07E4529
:103E700005EB41656FF0FF0808EB03232B43013A84
:103E80001A430023CFF6FF7303EB0E452A43C261AA
:103E9000BCF5407F10D1D4E90925D4E90B166FF0A9
:103EA0000F0707EB061708EB01216E1E314339435C
:103EB00003EB02421143C160E16BD0F8C020114313
:103EC000C0F8C0102046FDF7DFFA00202066A0658C
:103ED000012184F85C10BDE8F081000010B598B0B5
:103EE000044600201790CDE91500CDE9130002A883
:103EF0004421FCF78DFB206846F20041C4F200012A
:103F0000884201D018B010BD4FF000700E904FF4F1
:103F10008050029002A801F0AFF9002818BFFDF709
:103F2000A1FA41F24C00C4F20200C16841F00071F4
:103F3000C160C16801F0007101910199016841F00F
:103F400002010160006800F0020001900198022067
:103F500014904FF4407013900020CDE91500092013
:103F6000179040F20040C4F6000013A900F004FAD4
:103F700015200521002200F05FFB152000F05AFB00
:103F800016200521002200F057FB162000F052FBFE
:103F900018B010BDB0B582B004460020019040F6C4
:103FA0006450C2F20000844201D002B0B0BD20468D
:103FB0004021FFF773FD0028F7D040F25C25C2F2E4
:103FC000000540F25823C2F20003204640212A4651
:103FD000FFF770FDE8680328E7D1286841F2F47123
:103FE000C2F2000191F86C1141F480618842DCD189
:103FF00044F67870C2F20000006840F25821C2F224
:10400000000101AA00230DF051F901980028CCD03D
:104010004EF60450CEF200004FF080510160BFF325
:104020004F8FBFF36F8F02B0B0BD0000704700002C
:1040300090F85C1001290BD1022180F85C10016816
:104040008A6922F001028A610021016608467047F0
:10405000016E41F00401016601210846704700002D
:104060007047000070470000704700007047000074
:1040700070470000704700002DE9F04381B088468A
:10408000054640F2B019C2F2000999F80000012873
:1040900001D1022661E0012089F800004FF47A7016
:1040A000FDF708FB0646002E54D10020C9F8040095
:1040B00042F20004C4F202042168206800F4806027
:1040C00011F4007F06D160B1206820F48060206088
:1040D000022009E038B1206820F4806020600320CD
:1040E00002E0002000E0012089F81C002868012877
:1040F0000CD16868FDF78EFA4FF47A70FDF7DAFAA2
:104100000646606920F00400606121E04FF0FF3056
:10411000C8F80000D5E902703844874206D316E09B
:104120000137D5E902010844874210D23846FDF72D
:1041300081FA4FF47A70FDF7BDFA0646606920F403
:10414000FD706061002EEBD0C8F8007000E0002622
:10415000FDF72EFA002089F80000304601B0BDE8D6
:10416000F083000042F21400C4F20200016841F042
:10417000004101600068012181EAD07070470000B1
:104180002DE9F0471F4690460D46064640F2B0190D
:10419000C2F2000999F80000012802BF022420465B
:1041A000BDE8F087012089F800004FF47A70FDF730
:1041B00081FA0446D4BB0020C9F8040042F2000A88
:1041C000C4F2020ADAF8001011F4806F06D0DAF8AF
:1041D000000020F48060CAF80000022089F81C006A
:1041E0008EB1701E012808D828464146FDF748FACE
:1041F000022E02D16FF480250CE04FF47A70FDF7A7
:1042000059FA044610E0284642463B46FDF728FA94
:104210006FF001054FF47A70FDF74CFA0446DAF8B6
:1042200014002840CAF81400FDF7C2F9002089F8EC
:1042300000002046BDE8F08742F20800C4F2020008
:10424000C168B1F1FF3FC4BF0020704740F22311A5
:10425000C4F26751016048F6AB11CCF6EF51016032
:10426000C068C00F704700002DE9F04F83B00029EF
:104270007ED041F20042C4F600020623904208BFFD
:104280000523019300F138424FEAB2220092002246
:1042900000270125029100BFA5F10108012303FABF
:1042A00008FB1BEA010A5AD04FEA980940F2004184
:1042B000C4F201010F24A1F57E7C5CF829E007F02F
:1042C0000C0304FA03F10EEA01048E460099052955
:1042D000019E38BF0E4606FA03F39C421ED140F2FF
:1042E0000041C4F201010B6823EA0A030B604B682A
:1042F00023EA0A034B6040F20C43C4F201031E465A
:10430000336823EA0A0333608B6823EA0A038B606D
:104310005CF8293023EA0E014CF829100321914062
:1043200003680B43036007F01C030F2606FA03F330
:104330004FF6FC76C7F6FF7606EA58060644346A5E
:1043400024EA03033362C3688B43C360436823EAF0
:104350000B034360836823EA01018160029931FA0B
:1043600005F302F1020207F1040705F1010593D1FB
:1043700003B0BDE8F08F00002DE9F04F83B00E6868
:10438000002E00F0D58041F20042C4F60002062360
:10439000904208BF0523019300F138424FEAB22250
:1043A0000092002200254FF0010900BFA9F1010A87
:1043B000012303FA0AFC16EA0C0800F0AE80D1F8DB
:1043C00004E00EF00306A6F1010BBBF1010F13D8B8
:1043D0004FF0030B0BFA02F78368BB43CF6897409B
:1043E0003B438360CEF3001303FA0AF3476827EADE
:1043F0000C073B43436007E0032E4FF0030B03D150
:104400008B68012B1ED000BF0BFA02F3C76827EAA6
:1044100003038F6897403B43C360022E12D105F01F
:104420001C030F279F404FF6FC76C7F6FF7606EA7F
:104430005A060644346A24EA07070C6904FA03F3AF
:104440003B4333620BFA02F3076827EA03034F6822
:1044500007F0030696403343036017F4403F5CD0F7
:1044600041F26003C4F202031F463B6843F00103BC
:104470003B603B6803F0010302932AF0030340F220
:10448000004EC4F2010E7344029F4FF60847CFF668
:10449000FF77BA4653F80A7005F00C060F24B440B3
:1044A00027EA040C009F052F019C38BF3C4604FA04
:1044B00006F646EA0C0743F80A70DEF8083043EACD
:1044C00008074E6816F4801F08BF23EA0807CEF8D5
:1044D000087040F20C43C4F201031C46236843EA0F
:1044E000080716F4001F08BF23EA08072760DEF854
:1044F000043043EA080716F4003F08BF23EA080720
:10450000CEF80470DEF8003043EA080716F4803F66
:1045100008BF23EA0807CEF800700E6836FA09F3E0
:1045200002F1020205F1040509F101097FF43EAF31
:1045300003B0BDE8F08F000000F11803002A08BFA7
:1045400000F128031960704744F62030C2F20000E1
:104550000068704740F2D410C2F20000006844F6D0
:104560002031C2F200010A68104408607047000060
:1045700080B5032000F070F80F2000F009F8002843
:104580001CBF012080BD00F02FF8002080BD00007E
:10459000B0B5044640F2D410C2F200000068F0B199
:1045A0004FF47A71B1FBF0F040F24C01C2F200011D
:1045B0000968B1FBF0F001F0A5FF01250F2C0CD824
:1045C00058B900254FF0FF302146002200F034F8A2
:1045D00040F2D810C2F2000004602846B0BD0125A8
:1045E0002846B0BD7047000080B582B041F2580047
:1045F000C4F20200816841F001018160816801F02C
:10460000010101910199016841F080510160006848
:1046100000F08050009000986FF001000F21002200
:1046200000F00AF802B0BDE8804000F0F3BD0000E1
:1046300007F0A8BD07F0BABD70B514460D46064692
:1046400007F0C4FD2946224603F078FF01463046B4
:10465000BDE8704007F0C2BD07F0DABD0121C0F827
:10466000D012002180F8C8120068B0F8541041F050
:104670000101A0F85410B0F8541041F00201A0F864
:10468000541000207047000010B50446012911D0D5
:1046900001BB607A48B105F025F94EF61050CEF214
:1046A0000000016821F006010160D4F8D80206F08C
:1046B000F3FD10BDD4F8D80206F06AFE607A002837
:1046C00008BF10BD4EF61050CEF20000016841F058
:1046D0000601016010BD000080B501EB810C00EB0C
:1046E000CC0C01F0070E0EEB8E0E00EBCE0010305E
:1046F00011F0800F08BF0CF5A87032B103810121C1
:104700000173190C4181002080BDC3800021017319
:10471000002080BD01EB810200EBC202526AD0F89A
:10472000D80206F083BC000001EB810200EBC2025C
:10473000D2F86421D0F8D80206F0CCBC10B50446FB
:1047400034B1032084F89102206807F0E7FC08B137
:10475000012010BD204600F01BFC002084F89102CF
:1047600010BD000010B50A46044602F0070000EB39
:10477000800104EBC10303F1100112F0800F08BFA8
:1047800003F5A8710870C2F3C010487094F8900245
:10479000012802BF0220C0B210BD012084F890029F
:1047A000206807F08BF9002084F89002C0B210BD99
:1047B000B0B50A460446207902F00F01814282BF5B
:1047C0000125E8B2B0BD02F0070000EB800104EB68
:1047D000C10303F1100112F0800F08BF03F5A871A7
:1047E00000258D70C2F3C0124A70087094F89002D0
:1047F000012802BF0225E8B2B0BD012084F8900272
:10480000206807F051FA84F89052E8B2B0BD000079
:10481000B0B503461868B0F850401B681C440D78CA
:1048200004EBC50448F2C00C12F4804F0AD1D1F851
:1048300018E0B4F806446FF39F24A6450DD2002378
:104840008B6112E0D1F818E0B4F802446FF39F24B2
:10485000A64524D200238B612FE0BEEB04038B61BD
:1048600003D052060FD5C4B940E030F825E043F636
:104870000F730EEA030E0CF5FE5383EA0E0320F8C5
:1048800025305206EFD430F8252040F60F731A4039
:1048900042EA0C0220F8252044B34A8907E0BEEB27
:1048A00004038B6109D0520615D4FCB10A89496909
:1048B000A3B207F009FCA0B2B0BD30F825E043F682
:1048C0000F730EEA030E0CF5FE5383EA0E0320F875
:1048D00025305206E9D530F8252040F60F731A40EE
:1048E00042EA0C0220F82520002CDFD10024A0B2DF
:1048F000B0BD00002DE9F04381B016460D4681465B
:10490000D9F80000B0F85010D9F800200A442978EE
:1049100002EBC1034FEAC10816F0400F09D1AA69A2
:10492000B3F806346FF39F239A4232D20022AA6171
:1049300058E0AA69B3F802346FF39F239A4273D9FF
:10494000D21AAA6172D0720409D530F8212040F63B
:104950000F773A404CF280073A4320F8212095F82F
:104960002410012940F06281D5E90461D5E9072CC2
:10497000194469611A44EA61B44580F0CE804FF071
:10498000000E85F824E0BCF1000F40F0C9809C4681
:10499000C8E0D21AAA6125D0720409D430F82120C7
:1049A00040F60F773A404CF280073A4320F8212036
:1049B00095F82410012940F03981D5E904C1D5E9E1
:1049C0000726194469611A44EA61664580F0CA8085
:1049D000002E0FBF9C4600222A62B446002285F8B2
:1049E0002420C2E06A78012A42D0002A4FD148F040
:1049F000020200F580631A44B0F85070D45B6FF384
:104A00009F24D453D45B44F40044D45348F00602AA
:104A10001A44B0F85030D75A6FF39F27D752D75A5D
:104A200047F40047D75232E00022AA616A78012A8F
:104A300042D0002A4FD148F0020200F580631A44A8
:104A4000B0F85070D45B6FF39F24D453D45B44F41C
:104A50000044D45348F006021A44B0F85030D75AF4
:104A60006FF39F27D752D75A47F40047D75232E007
:104A700048F0020200F580631A44B0F85070002438
:104A8000D45348F006021A44B0F85030D452EA78B1
:104A9000022A09D130F8212040F63F731A4048F22B
:104AA000A0035A4020F821204846FFF733FE700447
:104AB00023D501B0BDE8F08348F0020200F5806321
:104AC0001A44B0F850700024D45348F006021A4437
:104AD000B0F85030D452EA78022A09D130F82120B7
:104AE00040F63F731A4048F2A0035A4020F82120B4
:104AF0004846FFF70FFE7004DBD52878D9F8001080
:104B000031F8202040F60F731A404CF280031A430C
:104B100021F8202001B0BDE8F083ACEB060EB446CE
:104B2000C5F820E06A78012A3FD0002A67D148F012
:104B300002020244B0F850301A44B2F800346FF365
:104B40009F23A2F8003402F58062BCF1000F40D030
:104B5000BCF13E0F43D80CF0010303EB5C039B0256
:104B60009BB249E0A6EB0C022A626A78012A26D0A1
:104B7000002A56D148F006020244B0F850301A44D8
:104B8000B2F800346FF39F23A2F8003402F580627C
:104B9000BCF1000F20D0BCF13E0F32D80CF0010365
:104BA00003EB5C039B029BB238E048F00202024434
:104BB000B0F850301A4402F5806263461EE048F0B7
:104BC00006020244B0F850301A4402F5806263468F
:104BD00026E04FF400430FE04FF400431EE04FF097
:104BE000FF334FEA5C171CF01F0F08BF03EB5C1785
:104BF0004FF4004367F38E2317883B4313802A89C1
:104C000010E04FF0FF334FEA5C171CF01F0F08BF96
:104C100003EB5C174FF4004367F38E2317883B4385
:104C200013806A891FFA8CF307F084FA2878D9F880
:104C3000001031F8202040F63F731A4048F2A003DC
:104C4000CFF6FF7310335A4021F8202001B0BDE8A1
:104C5000F083000001F0070101EB810100EBC100CE
:104C6000D0F86C017047000070B50C46064604F0A1
:104C7000070000EB800106EBC10505F1100114F0FF
:104C8000800F08BF05F5A8710870C4F3C010487004
:104C90006FF3DF220A61CB70022B04BF0020087182
:104CA00096F89002012802BF0220C0B270BD012018
:104CB00086F89002306806F05DFD002086F89002CC
:104CC000C0B270BD80B501F0070C0CEB8C0100EB9D
:104CD000C1014FF0000E01F5B27787E80C4081F872
:104CE00051E181F850C101F5A871006807F02CF876
:104CF000002080BD10B5044601F007032279012091
:104D0000934223D801EB810204EBC20C03EB830234
:104D100004EBC202103211F0800F08BF0CF5A8722C
:104D20009070C1F3C0105070137094F89002012875
:104D300002BF0220C0B210BD012084F8900220689A
:104D4000114606F0E9FF002084F89002C0B210BDC1
:104D500080B501F0070C0CEB8C0100EBC10101F8F0
:104D600010CF4FF0010C81F824C04FF0000E01F17C
:104D7000140787E80C400B6281F801C0006806F058
:104D8000E3FF002080BD000010B50446206807F056
:104D900097F910F4004F18D141051BD4410428D4D1
:104DA00081042ED4C10434D4010555D4010667D43E
:104DB000810574D4C00558BF10BD2068B0F84410F8
:104DC00021F48071A0F8441010BD2046BDE81040C9
:104DD00003F0D0BB2068B0F8441021F48061A0F843
:104DE0004410204600F01CF92046002100F042F952
:104DF00010BD2068B0F8441021F48041A0F84410A0
:104E000010BD2068B0F8441021F40051A0F84410FF
:104E100010BD2068B0F8401021F00401A0F8401047
:104E2000B0F8401021F00801A0F8401094F8C80232
:104E3000012806D1002084F8C80220460021FFF78F
:104E400023FC204600F0FEF82068B0F8441021F45E
:104E50008051A0F8441010BD2068B0F8401041F017
:104E60000801A0F84010B0F8441021F40061A0F847
:104E70004410B0F8401041F00401A0F8401009E0DF
:104E80002068B0F8441021F08001A0F8441094F894
:104E9000C81281B12046BDE8104000F039B9206841
:104EA000B0F8441021F40071A0F844102046BDE889
:104EB000104000F0DBB8B0F8401041F00401A0F859
:104EC0004010B0F8401041F00801A0F84010012156
:104ED00084F8C812B0F8540000F0F0008008C4F85C
:104EE000CC0220460121BDE81040FFF7CDBB0000F9
:104EF000B0B50546002D04BF0120B0BD95F8910264
:104F000028B9002085F89002284600F055F80320C3
:104F100085F89102286806F081FE287928B305F10A
:104F20002001287900220123002400BF01F8104C41
:104F300001F80F3C01F80D2CC1E900228A602831EC
:104F400001348442F2D380B105F5B471002200230C
:104F500001F8183C01F8172C01F8152C41E9022240
:104F60000A60283101339842F2D195E8070006F033
:104F700049FE00202873012185F89112A97A0129A0
:104F800018BFB0BD2846FFF769FB0020B0BD000088
:104F9000006845F60041C4F20001884218BF70471E
:104FA00041F25800C4F20200016821F400010160DE
:104FB0001420FFF73DBB000010B592B0044601A8D5
:104FC0004421FBF725FB206845F60041C4F20001AF
:104FD000884201D012B010BD00200E904FF4005056
:104FE000019001A800F048F9002818BFFCF73AFA30
:104FF00041F25800C4F20200016841F4000101606E
:10500000006800F4000000900098142005210022A0
:10501000FFF712FB1420FFF70DFB12B010BD0000CC
:1050200010B504466079022818BFFCF71BFAD4F8C3
:10503000D802012106F050F9D4F8D802BDE810409A
:1050400006F0F8B810B50446607A48B14EF6105034
:10505000CEF20000016821F00601016004F042FC7C
:10506000D4F8D802BDE8104006F016B9D0F8D8023E
:1050700006F01CB910B5044694F89002012802BF4E
:105080000220C0B210BD2173012084F89002206874
:1050900007F03CF8002084F89002C0B210BD000078
:1050A000D0F8D82200F52671104606F023B900008A
:1050B00010B5044694F89002012802BF0220C0B245
:1050C00010BD012084F89002206806F0E9FF2068F6
:1050D00006F088FD002084F89002C0B210BD0000E8
:1050E00010B5044694F89002012802BF0220C0B215
:1050F00010BD012084F89002206806F08FFD206822
:1051000006F078FD002084F89002C0B210BD0000C7
:1051100010B50446D4F8D80206F03AF9607A0028AF
:1051200008BF10BD4EF61050CEF20000016841F0ED
:105130000601016010BD000090B347F20001C4F207
:1051400000010A68B0F5007F5CD1D1F8800040F41E
:105150008070C1F8800002F4C060B0F5806F55D156
:105160000868012262F34A20086040F24C00C2F253
:1051700000000068322250434DF68362C4F21B32B5
:10518000A0FB02026FEA92404A6900281CBF01306E
:1051900012F48062F8D1486910F4806F36D02EE0A6
:1051A00047F20000C4F200000168D0F8802022F429
:1051B0008072C0F8802001F4C061B1F5806F25D104
:1051C0000168012262F34A21016040F24C01C2F2FF
:1051D00000010968322251434DF68362C4F21B324A
:1051E000A1FB02126FEA9241426900291CBF013102
:1051F00012F48062F8D1406910F4806F06D0032069
:10520000C0B27047022060F34A220A600020C0B298
:105210007047000047F20800C4F20000016841F442
:10522000804101607047000041F23801C4F2020180
:105230000A6842F480720A600A6822F480720A6086
:10524000D0E900C2D0E9023142EA0C021A4311430C
:10525000026941EA024142F20002C4F200025160D6
:105260001168406921F4FE4141EA00201060106895
:1052700040F06000106070472DE9F04182B00446B4
:10528000A078000741F28806C4F2020601D400208B
:1052900063E056F8300C10F0805F0ED156F8300CF9
:1052A00040F0805046F8300C56F8300C00F080503A
:1052B000019001984FF0010801E04FF0000847F21B
:1052C0000007C4F20007386840F480703860FFF7C8
:1052D0003BF90546386810F4807F05D1FFF734F9B3
:1052E000401B0228F6D92EE0B06810F4407022D09E
:1052F000216C88420BD0B068B16841F48031B16054
:10530000B16821F48031B16020F44070B060C00712
:1053100011D0FFF719F90546B06810F0020F0AD155
:1053200041F28837FFF710F9401BB8420BD8B0683C
:1053300010F0020FF6D0B068216C20F440700843E2
:10534000B060002000E00320B8F1000F1EBF56F847
:10535000301C21F0805146F8301C216811F0010FFB
:1053600031D18A0737D44A073DD40A0743D48A0685
:1053700049D44A064FD40A0655D4CA055BD48A05D7
:1053800061D44A0567D40A0577D4CA0400F187803E
:105390008A0400F196804A0400F1A58009040ED524
:1053A0003168E26B21F0405111433160B2F1805F0E
:1053B00002BF56F87C1C41F4803146F87C1CC0B218
:1053C00002B0BDE8F0813268636822F003021A433C
:1053D00032608A07C7D53268A36822F00C021A43EC
:1053E00032604A07C1D53268E36822F030021A43BE
:1053F00032600A07BBD53268236922F0C0021A4323
:1054000032608A06B5D53268636922F440621A4375
:1054100032604A06AFD53268A36922F440521A437B
:1054200032600A06A9D53268E36922F440421A4381
:105430003260CA05A3D53268236A22F440321A4387
:1054400032608A059DD53268636A22F440221A438D
:1054500032604A0597D53268A36A22F440121A4393
:105460003260B3F5801F02BF56F87C2C42F48012E4
:1054700046F87C2C0A057FF588AF3268E36A22F48F
:1054800040021A433260B3F5800F02BF56F87C2CFD
:1054900042F4801246F87C2CCA047FF579AF32685A
:1054A000236B22F040721A433260B3F1807F02BF57
:1054B00056F87C2C42F4801246F87C2C8A047FF546
:1054C0006AAF3268636B22F040621A433260B3F114
:1054D000006F02BF56F87C2C42F4801246F87C2CF8
:1054E0004A047FF55BAF3268A36B22F040621A4337
:1054F0003260B3F1006F02BF56F87C2C42F4801288
:1055000046F87C2C09047FF55AAF49E72DE9F047AE
:105510000D460446002C00F0C18041F2080AC4F296
:10552000020ADAF8F80F00F00F00A8420DD2DAF8FC
:10553000F80F20F00F002843CAF8F80FDAF8F80F38
:1055400000F00F00A84240F0A9802078C0070DD1DC
:105550004FF00008206810F0020F29D1B8F1800F39
:105560003FD1DAF8000020F0F00038E0616803294C
:1055700040F08E805AF8080C10F0007F00F08E800A
:1055800003F0EEFD4BF20041C0F2C44188420CD959
:10559000DAF8000010F0F00F00F08F80207880071C
:1055A00003D5A068002800F088804FF000088DE047
:1055B000410742BFDAF8001041F4E061CAF8001078
:1055C000000706D5DAF80000072161F30D20CAF8BC
:1055D0000000DAF80000A16820F0F0000843CAF8E3
:1055E0000000DAF8F80F00F00F00A8421DD9DAF831
:1055F000F80F20F00F002843CAF8F80FFEF7A4FFB9
:105600000646DAF8F80F00F00F00A8420DD041F27C
:10561000883700BFFEF798FF801BB8427AD8DAF8C7
:10562000F80F00F00F00A842F4D1206810F0040F2A
:1056300007D0DAF80010E26821F4E0611143CAF8FB
:105640000010000708D5DAF80000216920F4605046
:1056500040EAC100CAF8000000F0F6F8DAF80010DD
:10566000C1F3031143F6F002C0F60102515C01F0F0
:105670001F01C84040F24C01C2F20001086040F234
:10568000D810C2F200000068BDE8F047FEF780BF06
:105690005AF8080C022905D1800305D40120C0B2B4
:1056A000BDE8F0874005F9D500F0CEF84BF2004197
:1056B000C0F2C44188427FF678AFDAF800000821D2
:1056C00061F30710CAF800004FF08008DAF8000014
:1056D000616820F003000843CAF80000FEF734FFB9
:1056E0000646DAF80000616800F00C00B0EB810FAC
:1056F0003FF430AF41F28839FEF726FF801B484562
:1057000008D8DAF80000616800F00C00B0EB810FF7
:10571000F2D11FE70320C0B2BDE8F08770B5FEF7F5
:1057200013FF044641F20005C4F20205286840F464
:1057300080702860286810F4806F05D1FEF704FFA0
:10574000001B0228F6D93EE0686840F0804068609F
:10575000FEF7FAFE04460120A860A86800F00C00DD
:1057600004280BD041F28836FEF7EEFE001BB04253
:1057700029D8A86800F00C000428F5D140F24C00AC
:10578000C2F2000042F20041C0F2F401016040F2B6
:10579000D810C2F200000068FEF7FAFE00281EBF13
:1057A0000120C0B270BD4FF4807028602860FEF701
:1057B000CBFE0446286810F0007F07D0FEF7C4FE39
:1057C000001B0228F6D90320C0B270BD4FF48050F0
:1057D000E8600020A8614FF0FF312962D5F89410ED
:1057E00041F40001C5F89410C0B270BD40F24C0005
:1057F000C2F200000068704780B5FFF7F7FF41F282
:105800000801C4F202010968C1F3022143F6001243
:10581000C0F60102515C01F01F01C84080BD0000CC
:1058200080B5FFF7E3FF41F20801C4F20201096805
:10583000C1F3C22143F60012C0F60102515C01F02F
:105840001F01C84080BD000041F20C01C4F20201FA
:1058500051F8040C00F00C0242F20040C0F2F400D7
:10586000042A08BF704751F8042C02F00C02082AE1
:105870001BD051F8042C02F00C020C2A1CBF002093
:1058800070470A680A68D1F800C00968C1F341612D
:10589000022303EB4101C2F303120132B0FBF2F029
:1058A000CCF306225043B0FBF1F070472DE9F043F2
:1058B00081B00446002C3FD02078C00741F2000997
:1058C000C4F2020941F29007C4F202073FD057F830
:1058D000881C57F8840C01F00C0108292ED00322F3
:1058E00022EA000081F00C010843B0FA80F0400980
:1058F00024D16668B6F5803F09D0D9F80000B6F526
:10590000A02F40F0208240F48020C9F80000D9F890
:10591000000040F48030C9F80000FEF715FE05468F
:10592000D9F8000010F4003F11D1FEF70DFE401B26
:105930006428F5D903203AE2012038E2D9F80000C2
:1059400010F4003F03D06068002800F01B8220782C
:10595000800718D42078000771D56169786800291C
:105960005CD040F001007860FEF7EEFD054600BF18
:10597000786810F0020F62D1FEF7E6FD401B0228A6
:10598000F6D9032013E257F8880C00F00C0057F802
:10599000841C042825D080F00C0001F0030181F064
:1059A00002010843B0FA80F040091AD1E168D9F841
:1059B0000000002900F0468140F48070C9F8000022
:1059C000FEF7C2FD054600BFD9F8000010F4806F55
:1059D00040F0AF80FEF7B8FD401B0228F4D9032049
:1059E000E5E1D9F8000010F4806F03D0E0680028EA
:1059F00000F0CA8157F88C0C216920F0FE4040EA83
:105A0000016047F88C0C40F2D810C2F20000006828
:105A1000FEF7BEFD00289DD00120C8E120F0010066
:105A20007860FEF791FD0546786810F0020F06D009
:105A3000FEF78AFD401B0228F6D90320B7E1207843
:105A400040075ED557F8380C10F0805F0ED157F83C
:105A5000380C40F0805047F8380C57F8380C00F0FC
:105A60008050009000984FF0010801E04FF00008CE
:105A700046F20006CFF6FE7659F8060010F4807F55
:105A800014D159F8060040F4807049F80600FEF77A
:105A90005BFD054659F8060010F4807F06D1FEF73D
:105AA00053FD401B0228F5D9032080E1A668012E92
:105AB00006D03868052E40F0288140F00400386098
:105AC000386840F001003860FEF73EFD0546386852
:105AD00010F0020F0CD141F2883600BFFEF734FD02
